{
  "_format": "hh-sol-artifact-1",
  "contractName": "mintContractParent",
  "sourceName": "contracts/mintContractParent.sol",
  "abi": [
    {
      "anonymous": false,
      "inputs": [
        {
          "indexed": true,
          "internalType": "address",
          "name": "previousOwner",
          "type": "address"
        },
        {
          "indexed": true,
          "internalType": "address",
          "name": "newOwner",
          "type": "address"
        }
      ],
      "name": "OwnershipTransferred",
      "type": "event"
    },
    {
      "anonymous": false,
      "inputs": [
        {
          "indexed": false,
          "internalType": "address",
          "name": "",
          "type": "address"
        },
        {
          "indexed": false,
          "internalType": "address",
          "name": "",
          "type": "address"
        }
      ],
      "name": "TokenCreated",
      "type": "event"
    },
    {
      "anonymous": false,
      "inputs": [
        {
          "indexed": false,
          "internalType": "address",
          "name": "",
          "type": "address"
        },
        {
          "indexed": false,
          "internalType": "address",
          "name": "",
          "type": "address"
        },
        {
          "indexed": false,
          "internalType": "address",
          "name": "",
          "type": "address"
        },
        {
          "indexed": false,
          "internalType": "uint256",
          "name": "",
          "type": "uint256"
        }
      ],
      "name": "TokenTransfered",
      "type": "event"
    },
    {
      "inputs": [
        {
          "internalType": "address",
          "name": "tokenAddress",
          "type": "address"
        },
        {
          "internalType": "uint256",
          "name": "start",
          "type": "uint256"
        },
        {
          "internalType": "uint256",
          "name": "end",
          "type": "uint256"
        },
        {
          "internalType": "string[]",
          "name": "tokenURI",
          "type": "string[]"
        }
      ],
      "name": "bulkMintERC721",
      "outputs": [],
      "stateMutability": "nonpayable",
      "type": "function"
    },
    {
      "inputs": [
        {
          "internalType": "string",
          "name": "name",
          "type": "string"
        },
        {
          "internalType": "string",
          "name": "symbol",
          "type": "string"
        }
      ],
      "name": "createToken",
      "outputs": [],
      "stateMutability": "nonpayable",
      "type": "function"
    },
    {
      "inputs": [
        {
          "internalType": "address",
          "name": "caller",
          "type": "address"
        }
      ],
      "name": "getLoginStatus",
      "outputs": [
        {
          "internalType": "bool",
          "name": "",
          "type": "bool"
        }
      ],
      "stateMutability": "view",
      "type": "function"
    },
    {
      "inputs": [],
      "name": "owner",
      "outputs": [
        {
          "internalType": "address",
          "name": "",
          "type": "address"
        }
      ],
      "stateMutability": "view",
      "type": "function"
    },
    {
      "inputs": [],
      "name": "renounceOwnership",
      "outputs": [],
      "stateMutability": "nonpayable",
      "type": "function"
    },
    {
      "inputs": [
        {
          "internalType": "uint256",
          "name": "tokenId",
          "type": "uint256"
        }
      ],
      "name": "setTokenId",
      "outputs": [],
      "stateMutability": "nonpayable",
      "type": "function"
    },
    {
      "inputs": [
        {
          "internalType": "address",
          "name": "newOwner",
          "type": "address"
        }
      ],
      "name": "transferOwnership",
      "outputs": [],
      "stateMutability": "nonpayable",
      "type": "function"
    },
    {
      "inputs": [
        {
          "internalType": "address",
          "name": "from",
          "type": "address"
        },
        {
          "internalType": "address payable",
          "name": "to",
          "type": "address"
        },
        {
          "internalType": "address",
          "name": "token",
          "type": "address"
        },
        {
          "internalType": "uint256",
          "name": "amount",
          "type": "uint256"
        }
      ],
      "name": "transferToken",
      "outputs": [],
      "stateMutability": "nonpayable",
      "type": "function"
    }
  ],
  "bytecode": "0x608060405234801561001057600080fd5b5061002d61002261003260201b60201c565b61003a60201b60201c565b6100fe565b600033905090565b60008060009054906101000a900473ffffffffffffffffffffffffffffffffffffffff169050816000806101000a81548173ffffffffffffffffffffffffffffffffffffffff021916908373ffffffffffffffffffffffffffffffffffffffff1602179055508173ffffffffffffffffffffffffffffffffffffffff168173ffffffffffffffffffffffffffffffffffffffff167f8be0079c531659141344cd1fd0a4f28419497f9722a3daafe3b4186f6b6457e060405160405180910390a35050565b6140cc8061010d6000396000f3fe60806040523480156200001157600080fd5b5060043610620000945760003560e01c8063938cb8051162000063578063938cb8051462000107578063c929ccf31462000127578063e95fd1551462000147578063f2fde38b146200017d5762000094565b80632c54de4f14620000995780632f2f2d5614620000b9578063715018a614620000d95780638da5cb5b14620000e5575b600080fd5b620000b76004803603810190620000b191906200099f565b6200019d565b005b620000d76004803603810190620000d1919062000a90565b620002ec565b005b620000e36200036b565b005b620000ef62000383565b604051620000fe919062000c13565b60405180910390f35b6200012560048036038101906200011f919062000a0b565b620003ac565b005b6200014560048036038101906200013f919062000b03565b62000578565b005b6200016560048036038101906200015f919062000973565b620005bf565b60405162000174919062000d2b565b60405180910390f35b6200019b600480360381019062000195919062000973565b62000615565b005b8173ffffffffffffffffffffffffffffffffffffffff166368155ec1858585856040518563ffffffff1660e01b8152600401620001de949392919062000c5d565b600060405180830381600087803b158015620001f957600080fd5b505af11580156200020e573d6000803e3d6000fd5b505050506001600260008673ffffffffffffffffffffffffffffffffffffffff1673ffffffffffffffffffffffffffffffffffffffff16815260200190815260200160002060008573ffffffffffffffffffffffffffffffffffffffff1673ffffffffffffffffffffffffffffffffffffffff16815260200190815260200160002060006101000a81548160ff0219169083151502179055507fa7814aaf178d6c8e61b2703f3dc1b8328dd6c99cbb405bf8f1bb0cb1bbb051a584848484604051620002de949392919062000caa565b60405180910390a150505050565b60008282604051620002fe90620007f1565b6200030b92919062000d48565b604051809103906000f08015801562000328573d6000803e3d6000fd5b5090507fd5f9bdf12adf29dab0248c349842c3822d53ae2bb4f36352f301630d018c813933826040516200035e92919062000c30565b60405180910390a1505050565b62000375620006a0565b62000381600062000725565b565b60008060009054906101000a900473ffffffffffffffffffffffffffffffffffffffff16905090565b60008390505b8281101562000483578473ffffffffffffffffffffffffffffffffffffffff1663d204c45e3384848151811062000412577f4e487b7100000000000000000000000000000000000000000000000000000000600052603260045260246000fd5b60200260200101516040518363ffffffff1660e01b81526004016200043992919062000cf7565b600060405180830381600087803b1580156200045457600080fd5b505af115801562000469573d6000803e3d6000fd5b5050505080806200047a9062000fc1565b915050620003b2565b5060018060003373ffffffffffffffffffffffffffffffffffffffff1673ffffffffffffffffffffffffffffffffffffffff16815260200190815260200160002060006101000a81548160ff02191690831515021790555083600360003373ffffffffffffffffffffffffffffffffffffffff1673ffffffffffffffffffffffffffffffffffffffff16815260200190815260200160002060006101000a81548173ffffffffffffffffffffffffffffffffffffffff021916908373ffffffffffffffffffffffffffffffffffffffff160217905550620005726001836200056c919062000e71565b62000578565b50505050565b80600560003373ffffffffffffffffffffffffffffffffffffffff1673ffffffffffffffffffffffffffffffffffffffff1681526020019081526020016000208190555050565b6000600160008373ffffffffffffffffffffffffffffffffffffffff1673ffffffffffffffffffffffffffffffffffffffff16815260200190815260200160002060009054906101000a900460ff169050919050565b6200061f620006a0565b600073ffffffffffffffffffffffffffffffffffffffff168173ffffffffffffffffffffffffffffffffffffffff16141562000692576040517f08c379a0000000000000000000000000000000000000000000000000000000008152600401620006899062000d83565b60405180910390fd5b6200069d8162000725565b50565b620006aa620007e9565b73ffffffffffffffffffffffffffffffffffffffff16620006ca62000383565b73ffffffffffffffffffffffffffffffffffffffff161462000723576040517f08c379a00000000000000000000000000000000000000000000000000000000081526004016200071a9062000da5565b60405180910390fd5b565b60008060009054906101000a900473ffffffffffffffffffffffffffffffffffffffff169050816000806101000a81548173ffffffffffffffffffffffffffffffffffffffff021916908373ffffffffffffffffffffffffffffffffffffffff1602179055508173ffffffffffffffffffffffffffffffffffffffff168173ffffffffffffffffffffffffffffffffffffffff167f8be0079c531659141344cd1fd0a4f28419497f9722a3daafe3b4186f6b6457e060405160405180910390a35050565b600033905090565b612f52806200114583390190565b600062000816620008108462000df0565b62000dc7565b905080838252602082019050828560208602820111156200083657600080fd5b60005b858110156200088557813567ffffffffffffffff8111156200085a57600080fd5b8086016200086989826200092f565b8552602085019450602084019350505060018101905062000839565b5050509392505050565b6000620008a6620008a08462000e1f565b62000dc7565b905082815260208101848484011115620008bf57600080fd5b620008cc84828562000f46565b509392505050565b600081359050620008e581620010f6565b92915050565b600081359050620008fc8162001110565b92915050565b600082601f8301126200091457600080fd5b813562000926848260208601620007ff565b91505092915050565b600082601f8301126200094157600080fd5b8135620009538482602086016200088f565b91505092915050565b6000813590506200096d816200112a565b92915050565b6000602082840312156200098657600080fd5b60006200099684828501620008d4565b91505092915050565b60008060008060808587031215620009b657600080fd5b6000620009c687828801620008d4565b9450506020620009d987828801620008eb565b9350506040620009ec87828801620008d4565b9250506060620009ff878288016200095c565b91505092959194509250565b6000806000806080858703121562000a2257600080fd5b600062000a3287828801620008d4565b945050602062000a45878288016200095c565b935050604062000a58878288016200095c565b925050606085013567ffffffffffffffff81111562000a7657600080fd5b62000a848782880162000902565b91505092959194509250565b6000806040838503121562000aa457600080fd5b600083013567ffffffffffffffff81111562000abf57600080fd5b62000acd858286016200092f565b925050602083013567ffffffffffffffff81111562000aeb57600080fd5b62000af9858286016200092f565b9150509250929050565b60006020828403121562000b1657600080fd5b600062000b26848285016200095c565b91505092915050565b62000b3a8162000f0a565b82525050565b62000b4b8162000ec0565b82525050565b62000b5c8162000eac565b82525050565b62000b6d8162000ed4565b82525050565b600062000b808262000e55565b62000b8c818562000e60565b935062000b9e81856020860162000f55565b62000ba9816200106d565b840191505092915050565b600062000bc360268362000e60565b915062000bd0826200107e565b604082019050919050565b600062000bea60208362000e60565b915062000bf782620010cd565b602082019050919050565b62000c0d8162000f00565b82525050565b600060208201905062000c2a600083018462000b51565b92915050565b600060408201905062000c47600083018562000b51565b62000c56602083018462000b51565b9392505050565b600060808201905062000c74600083018762000b51565b62000c83602083018662000b40565b62000c92604083018562000b51565b62000ca1606083018462000c02565b95945050505050565b600060808201905062000cc1600083018762000b51565b62000cd0602083018662000b2f565b62000cdf604083018562000b51565b62000cee606083018462000c02565b95945050505050565b600060408201905062000d0e600083018562000b51565b818103602083015262000d22818462000b73565b90509392505050565b600060208201905062000d42600083018462000b62565b92915050565b6000604082019050818103600083015262000d64818562000b73565b9050818103602083015262000d7a818462000b73565b90509392505050565b6000602082019050818103600083015262000d9e8162000bb4565b9050919050565b6000602082019050818103600083015262000dc08162000bdb565b9050919050565b600062000dd362000de6565b905062000de1828262000f8b565b919050565b6000604051905090565b600067ffffffffffffffff82111562000e0e5762000e0d6200103e565b5b602082029050602081019050919050565b600067ffffffffffffffff82111562000e3d5762000e3c6200103e565b5b62000e48826200106d565b9050602081019050919050565b600081519050919050565b600082825260208201905092915050565b600062000e7e8262000f00565b915062000e8b8362000f00565b92508282101562000ea15762000ea06200100f565b5b828203905092915050565b600062000eb98262000ee0565b9050919050565b600062000ecd8262000ee0565b9050919050565b60008115159050919050565b600073ffffffffffffffffffffffffffffffffffffffff82169050919050565b6000819050919050565b600062000f178262000f1e565b9050919050565b600062000f2b8262000f32565b9050919050565b600062000f3f8262000ee0565b9050919050565b82818337600083830152505050565b60005b8381101562000f7557808201518184015260208101905062000f58565b8381111562000f85576000848401525b50505050565b62000f96826200106d565b810181811067ffffffffffffffff8211171562000fb85762000fb76200103e565b5b80604052505050565b600062000fce8262000f00565b91507fffffffffffffffffffffffffffffffffffffffffffffffffffffffffffffffff8214156200100457620010036200100f565b5b600182019050919050565b7f4e487b7100000000000000000000000000000000000000000000000000000000600052601160045260246000fd5b7f4e487b7100000000000000000000000000000000000000000000000000000000600052604160045260246000fd5b6000601f19601f8301169050919050565b7f4f776e61626c653a206e6577206f776e657220697320746865207a65726f206160008201527f6464726573730000000000000000000000000000000000000000000000000000602082015250565b7f4f776e61626c653a2063616c6c6572206973206e6f7420746865206f776e6572600082015250565b620011018162000eac565b81146200110d57600080fd5b50565b6200111b8162000ec0565b81146200112757600080fd5b50565b620011358162000f00565b81146200114157600080fd5b5056fe60806040523480156200001157600080fd5b5060405162002f5238038062002f52833981810160405281019062000037919062000197565b818181600090805190602001906200005192919062000075565b5080600190805190602001906200006a92919062000075565b50505050506200037a565b82805462000083906200029f565b90600052602060002090601f016020900481019282620000a75760008555620000f3565b82601f10620000c257805160ff1916838001178555620000f3565b82800160010185558215620000f3579182015b82811115620000f2578251825591602001919060010190620000d5565b5b50905062000102919062000106565b5090565b5b808211156200012157600081600090555060010162000107565b5090565b60006200013c620001368462000233565b6200020a565b9050828152602081018484840111156200015557600080fd5b6200016284828562000269565b509392505050565b600082601f8301126200017c57600080fd5b81516200018e84826020860162000125565b91505092915050565b60008060408385031215620001ab57600080fd5b600083015167ffffffffffffffff811115620001c657600080fd5b620001d4858286016200016a565b925050602083015167ffffffffffffffff811115620001f257600080fd5b62000200858286016200016a565b9150509250929050565b60006200021662000229565b9050620002248282620002d5565b919050565b6000604051905090565b600067ffffffffffffffff8211156200025157620002506200033a565b5b6200025c8262000369565b9050602081019050919050565b60005b83811015620002895780820151818401526020810190506200026c565b8381111562000299576000848401525b50505050565b60006002820490506001821680620002b857607f821691505b60208210811415620002cf57620002ce6200030b565b5b50919050565b620002e08262000369565b810181811067ffffffffffffffff821117156200030257620003016200033a565b5b80604052505050565b7f4e487b7100000000000000000000000000000000000000000000000000000000600052602260045260246000fd5b7f4e487b7100000000000000000000000000000000000000000000000000000000600052604160045260246000fd5b6000601f19601f8301169050919050565b612bc8806200038a6000396000f3fe608060405234801561001057600080fd5b50600436106100f55760003560e01c806368155ec111610097578063b88d4fde11610066578063b88d4fde14610282578063c87b56dd1461029e578063d204c45e146102ce578063e985e9c5146102ea576100f5565b806368155ec1146101fc57806370a082311461021857806395d89b4114610248578063a22cb46514610266576100f5565b8063095ea7b3116100d3578063095ea7b31461017857806323b872dd1461019457806342842e0e146101b05780636352211e146101cc576100f5565b806301ffc9a7146100fa57806306fdde031461012a578063081812fc14610148575b600080fd5b610114600480360381019061010f9190611dac565b61031a565b604051610121919061218f565b60405180910390f35b6101326103fc565b60405161013f91906121aa565b60405180910390f35b610162600480360381019061015d9190611dfe565b61048e565b60405161016f91906120f1565b60405180910390f35b610192600480360381019061018d9190611d70565b6104d4565b005b6101ae60048036038101906101a99190611c16565b6105ec565b005b6101ca60048036038101906101c59190611c16565b61064c565b005b6101e660048036038101906101e19190611dfe565b61066c565b6040516101f391906120f1565b60405180910390f35b61021660048036038101906102119190611bb3565b61071e565b005b610232600480360381019061022d9190611b4e565b610841565b60405161023f919061236c565b60405180910390f35b6102506108f9565b60405161025d91906121aa565b60405180910390f35b610280600480360381019061027b9190611ce0565b61098b565b005b61029c60048036038101906102979190611c65565b6109a1565b005b6102b860048036038101906102b39190611dfe565b610a03565b6040516102c591906121aa565b60405180910390f35b6102e860048036038101906102e39190611d1c565b610b16565b005b61030460048036038101906102ff9190611b77565b610b47565b604051610311919061218f565b60405180910390f35b60007f80ac58cd000000000000000000000000000000000000000000000000000000007bffffffffffffffffffffffffffffffffffffffffffffffffffffffff1916827bffffffffffffffffffffffffffffffffffffffffffffffffffffffff191614806103e557507f5b5e139f000000000000000000000000000000000000000000000000000000007bffffffffffffffffffffffffffffffffffffffffffffffffffffffff1916827bffffffffffffffffffffffffffffffffffffffffffffffffffffffff1916145b806103f557506103f482610bdb565b5b9050919050565b60606000805461040b9061260a565b80601f01602080910402602001604051908101604052809291908181526020018280546104379061260a565b80156104845780601f1061045957610100808354040283529160200191610484565b820191906000526020600020905b81548152906001019060200180831161046757829003601f168201915b5050505050905090565b600061049982610c45565b6004600083815260200190815260200160002060009054906101000a900473ffffffffffffffffffffffffffffffffffffffff169050919050565b60006104df8261066c565b90508073ffffffffffffffffffffffffffffffffffffffff168373ffffffffffffffffffffffffffffffffffffffff161415610550576040517f08c379a00000000000000000000000000000000000000000000000000000000081526004016105479061232c565b60405180910390fd5b8073ffffffffffffffffffffffffffffffffffffffff1661056f610c90565b73ffffffffffffffffffffffffffffffffffffffff16148061059e575061059d81610598610c90565b610b47565b5b6105dd576040517f08c379a00000000000000000000000000000000000000000000000000000000081526004016105d4906122cc565b60405180910390fd5b6105e78383610c98565b505050565b6105fd6105f7610c90565b82610d51565b61063c576040517f08c379a00000000000000000000000000000000000000000000000000000000081526004016106339061234c565b60405180910390fd5b610647838383610de6565b505050565b610667838383604051806020016040528060008152506109a1565b505050565b6000806002600084815260200190815260200160002060009054906101000a900473ffffffffffffffffffffffffffffffffffffffff169050600073ffffffffffffffffffffffffffffffffffffffff168173ffffffffffffffffffffffffffffffffffffffff161415610715576040517f08c379a000000000000000000000000000000000000000000000000000000000815260040161070c9061230c565b60405180910390fd5b80915050919050565b600073ffffffffffffffffffffffffffffffffffffffff168273ffffffffffffffffffffffffffffffffffffffff16146107c6578173ffffffffffffffffffffffffffffffffffffffff166323b872dd8585846040518463ffffffff1660e01b815260040161078f9392919061210c565b600060405180830381600087803b1580156107a957600080fd5b505af11580156107bd573d6000803e3d6000fd5b5050505061083b565b8273ffffffffffffffffffffffffffffffffffffffff166108fc829081150290604051600060405180830381858888f1935050505061083a576040517f08c379a0000000000000000000000000000000000000000000000000000000008152600401610831906122ac565b60405180910390fd5b5b50505050565b60008073ffffffffffffffffffffffffffffffffffffffff168273ffffffffffffffffffffffffffffffffffffffff1614156108b2576040517f08c379a00000000000000000000000000000000000000000000000000000000081526004016108a99061226c565b60405180910390fd5b600360008373ffffffffffffffffffffffffffffffffffffffff1673ffffffffffffffffffffffffffffffffffffffff168152602001908152602001600020549050919050565b6060600180546109089061260a565b80601f01602080910402602001604051908101604052809291908181526020018280546109349061260a565b80156109815780601f1061095657610100808354040283529160200191610981565b820191906000526020600020905b81548152906001019060200180831161096457829003601f168201915b5050505050905090565b61099d610996610c90565b838361104d565b5050565b6109b26109ac610c90565b83610d51565b6109f1576040517f08c379a00000000000000000000000000000000000000000000000000000000081526004016109e89061234c565b60405180910390fd5b6109fd848484846111ba565b50505050565b6060610a0e82610c45565b6000600660008481526020019081526020016000208054610a2e9061260a565b80601f0160208091040260200160405190810160405280929190818152602001828054610a5a9061260a565b8015610aa75780601f10610a7c57610100808354040283529160200191610aa7565b820191906000526020600020905b815481529060010190602001808311610a8a57829003601f168201915b505050505090506000610ab8611216565b9050600081511415610ace578192505050610b11565b600082511115610b03578082604051602001610aeb9291906120cd565b60405160208183030381529060405292505050610b11565b610b0c8461122d565b925050505b919050565b6000610b226007611295565b9050610b2e83826112a3565b610b3881836112c1565b610b426007611335565b505050565b6000600560008473ffffffffffffffffffffffffffffffffffffffff1673ffffffffffffffffffffffffffffffffffffffff16815260200190815260200160002060008373ffffffffffffffffffffffffffffffffffffffff1673ffffffffffffffffffffffffffffffffffffffff16815260200190815260200160002060009054906101000a900460ff16905092915050565b60007f01ffc9a7000000000000000000000000000000000000000000000000000000007bffffffffffffffffffffffffffffffffffffffffffffffffffffffff1916827bffffffffffffffffffffffffffffffffffffffffffffffffffffffff1916149050919050565b610c4e8161134b565b610c8d576040517f08c379a0000000000000000000000000000000000000000000000000000000008152600401610c849061230c565b60405180910390fd5b50565b600033905090565b816004600083815260200190815260200160002060006101000a81548173ffffffffffffffffffffffffffffffffffffffff021916908373ffffffffffffffffffffffffffffffffffffffff160217905550808273ffffffffffffffffffffffffffffffffffffffff16610d0b8361066c565b73ffffffffffffffffffffffffffffffffffffffff167f8c5be1e5ebec7d5bd14f71427d1e84f3dd0314c0f7b2291e5b200ac8c7c3b92560405160405180910390a45050565b600080610d5d8361066c565b90508073ffffffffffffffffffffffffffffffffffffffff168473ffffffffffffffffffffffffffffffffffffffff161480610d9f5750610d9e8185610b47565b5b80610ddd57508373ffffffffffffffffffffffffffffffffffffffff16610dc58461048e565b73ffffffffffffffffffffffffffffffffffffffff16145b91505092915050565b8273ffffffffffffffffffffffffffffffffffffffff16610e068261066c565b73ffffffffffffffffffffffffffffffffffffffff1614610e5c576040517f08c379a0000000000000000000000000000000000000000000000000000000008152600401610e53906121ec565b60405180910390fd5b600073ffffffffffffffffffffffffffffffffffffffff168273ffffffffffffffffffffffffffffffffffffffff161415610ecc576040517f08c379a0000000000000000000000000000000000000000000000000000000008152600401610ec39061222c565b60405180910390fd5b610ed78383836113b7565b610ee2600082610c98565b6001600360008573ffffffffffffffffffffffffffffffffffffffff1673ffffffffffffffffffffffffffffffffffffffff1681526020019081526020016000206000828254610f3291906124d8565b925050819055506001600360008473ffffffffffffffffffffffffffffffffffffffff1673ffffffffffffffffffffffffffffffffffffffff1681526020019081526020016000206000828254610f899190612451565b92505081905550816002600083815260200190815260200160002060006101000a81548173ffffffffffffffffffffffffffffffffffffffff021916908373ffffffffffffffffffffffffffffffffffffffff160217905550808273ffffffffffffffffffffffffffffffffffffffff168473ffffffffffffffffffffffffffffffffffffffff167fddf252ad1be2c89b69c2b068fc378daa952ba7f163c4a11628f55a4df523b3ef60405160405180910390a46110488383836113bc565b505050565b8173ffffffffffffffffffffffffffffffffffffffff168373ffffffffffffffffffffffffffffffffffffffff1614156110bc576040517f08c379a00000000000000000000000000000000000000000000000000000000081526004016110b39061224c565b60405180910390fd5b80600560008573ffffffffffffffffffffffffffffffffffffffff1673ffffffffffffffffffffffffffffffffffffffff16815260200190815260200160002060008473ffffffffffffffffffffffffffffffffffffffff1673ffffffffffffffffffffffffffffffffffffffff16815260200190815260200160002060006101000a81548160ff0219169083151502179055508173ffffffffffffffffffffffffffffffffffffffff168373ffffffffffffffffffffffffffffffffffffffff167f17307eab39ab6107e8899845ad3d59bd9653f200f220920489ca2b5937696c31836040516111ad919061218f565b60405180910390a3505050565b6111c5848484610de6565b6111d1848484846113c1565b611210576040517f08c379a0000000000000000000000000000000000000000000000000000000008152600401611207906121cc565b60405180910390fd5b50505050565b606060405180602001604052806000815250905090565b606061123882610c45565b6000611242611216565b90506000815111611262576040518060200160405280600081525061128d565b8061126c84611558565b60405160200161127d9291906120cd565b6040516020818303038152906040525b915050919050565b600081600001549050919050565b6112bd828260405180602001604052806000815250611705565b5050565b6112ca8261134b565b611309576040517f08c379a00000000000000000000000000000000000000000000000000000000081526004016113009061228c565b60405180910390fd5b8060066000848152602001908152602001600020908051906020019061133092919061195d565b505050565b6001816000016000828254019250508190555050565b60008073ffffffffffffffffffffffffffffffffffffffff166002600084815260200190815260200160002060009054906101000a900473ffffffffffffffffffffffffffffffffffffffff1673ffffffffffffffffffffffffffffffffffffffff1614159050919050565b505050565b505050565b60006113e28473ffffffffffffffffffffffffffffffffffffffff16611760565b1561154b578373ffffffffffffffffffffffffffffffffffffffff1663150b7a0261140b610c90565b8786866040518563ffffffff1660e01b815260040161142d9493929190612143565b602060405180830381600087803b15801561144757600080fd5b505af192505050801561147857506040513d601f19601f820116820180604052508101906114759190611dd5565b60015b6114fb573d80600081146114a8576040519150601f19603f3d011682016040523d82523d6000602084013e6114ad565b606091505b506000815114156114f3576040517f08c379a00000000000000000000000000000000000000000000000000000000081526004016114ea906121cc565b60405180910390fd5b805181602001fd5b63150b7a0260e01b7bffffffffffffffffffffffffffffffffffffffffffffffffffffffff1916817bffffffffffffffffffffffffffffffffffffffffffffffffffffffff191614915050611550565b600190505b949350505050565b606060008214156115a0576040518060400160405280600181526020017f30000000000000000000000000000000000000000000000000000000000000008152509050611700565b600082905060005b600082146115d25780806115bb9061266d565b915050600a826115cb91906124a7565b91506115a8565b60008167ffffffffffffffff811115611614577f4e487b7100000000000000000000000000000000000000000000000000000000600052604160045260246000fd5b6040519080825280601f01601f1916602001820160405280156116465781602001600182028036833780820191505090505b5090505b600085146116f95760018261165f91906124d8565b9150600a8561166e91906126b6565b603061167a9190612451565b60f81b8183815181106116b6577f4e487b7100000000000000000000000000000000000000000000000000000000600052603260045260246000fd5b60200101907effffffffffffffffffffffffffffffffffffffffffffffffffffffffffffff1916908160001a905350600a856116f291906124a7565b945061164a565b8093505050505b919050565b61170f8383611783565b61171c60008484846113c1565b61175b576040517f08c379a0000000000000000000000000000000000000000000000000000000008152600401611752906121cc565b60405180910390fd5b505050565b6000808273ffffffffffffffffffffffffffffffffffffffff163b119050919050565b600073ffffffffffffffffffffffffffffffffffffffff168273ffffffffffffffffffffffffffffffffffffffff1614156117f3576040517f08c379a00000000000000000000000000000000000000000000000000000000081526004016117ea906122ec565b60405180910390fd5b6117fc8161134b565b1561183c576040517f08c379a00000000000000000000000000000000000000000000000000000000081526004016118339061220c565b60405180910390fd5b611848600083836113b7565b6001600360008473ffffffffffffffffffffffffffffffffffffffff1673ffffffffffffffffffffffffffffffffffffffff16815260200190815260200160002060008282546118989190612451565b92505081905550816002600083815260200190815260200160002060006101000a81548173ffffffffffffffffffffffffffffffffffffffff021916908373ffffffffffffffffffffffffffffffffffffffff160217905550808273ffffffffffffffffffffffffffffffffffffffff16600073ffffffffffffffffffffffffffffffffffffffff167fddf252ad1be2c89b69c2b068fc378daa952ba7f163c4a11628f55a4df523b3ef60405160405180910390a4611959600083836113bc565b5050565b8280546119699061260a565b90600052602060002090601f01602090048101928261198b57600085556119d2565b82601f106119a457805160ff19168380011785556119d2565b828001600101855582156119d2579182015b828111156119d15782518255916020019190600101906119b6565b5b5090506119df91906119e3565b5090565b5b808211156119fc5760008160009055506001016119e4565b5090565b6000611a13611a0e846123ac565b612387565b905082815260208101848484011115611a2b57600080fd5b611a368482856125c8565b509392505050565b6000611a51611a4c846123dd565b612387565b905082815260208101848484011115611a6957600080fd5b611a748482856125c8565b509392505050565b600081359050611a8b81612b1f565b92915050565b600081359050611aa081612b36565b92915050565b600081359050611ab581612b4d565b92915050565b600081359050611aca81612b64565b92915050565b600081519050611adf81612b64565b92915050565b600082601f830112611af657600080fd5b8135611b06848260208601611a00565b91505092915050565b600082601f830112611b2057600080fd5b8135611b30848260208601611a3e565b91505092915050565b600081359050611b4881612b7b565b92915050565b600060208284031215611b6057600080fd5b6000611b6e84828501611a7c565b91505092915050565b60008060408385031215611b8a57600080fd5b6000611b9885828601611a7c565b9250506020611ba985828601611a7c565b9150509250929050565b60008060008060808587031215611bc957600080fd5b6000611bd787828801611a7c565b9450506020611be887828801611a91565b9350506040611bf987828801611a7c565b9250506060611c0a87828801611b39565b91505092959194509250565b600080600060608486031215611c2b57600080fd5b6000611c3986828701611a7c565b9350506020611c4a86828701611a7c565b9250506040611c5b86828701611b39565b9150509250925092565b60008060008060808587031215611c7b57600080fd5b6000611c8987828801611a7c565b9450506020611c9a87828801611a7c565b9350506040611cab87828801611b39565b925050606085013567ffffffffffffffff811115611cc857600080fd5b611cd487828801611ae5565b91505092959194509250565b60008060408385031215611cf357600080fd5b6000611d0185828601611a7c565b9250506020611d1285828601611aa6565b9150509250929050565b60008060408385031215611d2f57600080fd5b6000611d3d85828601611a7c565b925050602083013567ffffffffffffffff811115611d5a57600080fd5b611d6685828601611b0f565b9150509250929050565b60008060408385031215611d8357600080fd5b6000611d9185828601611a7c565b9250506020611da285828601611b39565b9150509250929050565b600060208284031215611dbe57600080fd5b6000611dcc84828501611abb565b91505092915050565b600060208284031215611de757600080fd5b6000611df584828501611ad0565b91505092915050565b600060208284031215611e1057600080fd5b6000611e1e84828501611b39565b91505092915050565b611e3081612592565b82525050565b611e3f8161250c565b82525050565b611e4e81612530565b82525050565b6000611e5f8261240e565b611e698185612424565b9350611e798185602086016125d7565b611e82816127a3565b840191505092915050565b6000611e9882612419565b611ea28185612435565b9350611eb28185602086016125d7565b611ebb816127a3565b840191505092915050565b6000611ed182612419565b611edb8185612446565b9350611eeb8185602086016125d7565b80840191505092915050565b6000611f04603283612435565b9150611f0f826127b4565b604082019050919050565b6000611f27602583612435565b9150611f3282612803565b604082019050919050565b6000611f4a601c83612435565b9150611f5582612852565b602082019050919050565b6000611f6d602483612435565b9150611f788261287b565b604082019050919050565b6000611f90601983612435565b9150611f9b826128ca565b602082019050919050565b6000611fb3602983612435565b9150611fbe826128f3565b604082019050919050565b6000611fd6602e83612435565b9150611fe182612942565b604082019050919050565b6000611ff9602283612435565b915061200482612991565b604082019050919050565b600061201c603e83612435565b9150612027826129e0565b604082019050919050565b600061203f602083612435565b915061204a82612a2f565b602082019050919050565b6000612062601883612435565b915061206d82612a58565b602082019050919050565b6000612085602183612435565b915061209082612a81565b604082019050919050565b60006120a8602e83612435565b91506120b382612ad0565b604082019050919050565b6120c781612588565b82525050565b60006120d98285611ec6565b91506120e58284611ec6565b91508190509392505050565b60006020820190506121066000830184611e36565b92915050565b60006060820190506121216000830186611e36565b61212e6020830185611e27565b61213b60408301846120be565b949350505050565b60006080820190506121586000830187611e36565b6121656020830186611e36565b61217260408301856120be565b81810360608301526121848184611e54565b905095945050505050565b60006020820190506121a46000830184611e45565b92915050565b600060208201905081810360008301526121c48184611e8d565b905092915050565b600060208201905081810360008301526121e581611ef7565b9050919050565b6000602082019050818103600083015261220581611f1a565b9050919050565b6000602082019050818103600083015261222581611f3d565b9050919050565b6000602082019050818103600083015261224581611f60565b9050919050565b6000602082019050818103600083015261226581611f83565b9050919050565b6000602082019050818103600083015261228581611fa6565b9050919050565b600060208201905081810360008301526122a581611fc9565b9050919050565b600060208201905081810360008301526122c581611fec565b9050919050565b600060208201905081810360008301526122e58161200f565b9050919050565b6000602082019050818103600083015261230581612032565b9050919050565b6000602082019050818103600083015261232581612055565b9050919050565b6000602082019050818103600083015261234581612078565b9050919050565b600060208201905081810360008301526123658161209b565b9050919050565b600060208201905061238160008301846120be565b92915050565b60006123916123a2565b905061239d828261263c565b919050565b6000604051905090565b600067ffffffffffffffff8211156123c7576123c6612774565b5b6123d0826127a3565b9050602081019050919050565b600067ffffffffffffffff8211156123f8576123f7612774565b5b612401826127a3565b9050602081019050919050565b600081519050919050565b600081519050919050565b600082825260208201905092915050565b600082825260208201905092915050565b600081905092915050565b600061245c82612588565b915061246783612588565b9250827fffffffffffffffffffffffffffffffffffffffffffffffffffffffffffffffff0382111561249c5761249b6126e7565b5b828201905092915050565b60006124b282612588565b91506124bd83612588565b9250826124cd576124cc612716565b5b828204905092915050565b60006124e382612588565b91506124ee83612588565b925082821015612501576125006126e7565b5b828203905092915050565b600061251782612568565b9050919050565b600061252982612568565b9050919050565b60008115159050919050565b60007fffffffff0000000000000000000000000000000000000000000000000000000082169050919050565b600073ffffffffffffffffffffffffffffffffffffffff82169050919050565b6000819050919050565b600061259d826125a4565b9050919050565b60006125af826125b6565b9050919050565b60006125c182612568565b9050919050565b82818337600083830152505050565b60005b838110156125f55780820151818401526020810190506125da565b83811115612604576000848401525b50505050565b6000600282049050600182168061262257607f821691505b6020821081141561263657612635612745565b5b50919050565b612645826127a3565b810181811067ffffffffffffffff8211171561266457612663612774565b5b80604052505050565b600061267882612588565b91507fffffffffffffffffffffffffffffffffffffffffffffffffffffffffffffffff8214156126ab576126aa6126e7565b5b600182019050919050565b60006126c182612588565b91506126cc83612588565b9250826126dc576126db612716565b5b828206905092915050565b7f4e487b7100000000000000000000000000000000000000000000000000000000600052601160045260246000fd5b7f4e487b7100000000000000000000000000000000000000000000000000000000600052601260045260246000fd5b7f4e487b7100000000000000000000000000000000000000000000000000000000600052602260045260246000fd5b7f4e487b7100000000000000000000000000000000000000000000000000000000600052604160045260246000fd5b6000601f19601f8301169050919050565b7f4552433732313a207472616e7366657220746f206e6f6e20455243373231526560008201527f63656976657220696d706c656d656e7465720000000000000000000000000000602082015250565b7f4552433732313a207472616e736665722066726f6d20696e636f72726563742060008201527f6f776e6572000000000000000000000000000000000000000000000000000000602082015250565b7f4552433732313a20746f6b656e20616c7265616479206d696e74656400000000600082015250565b7f4552433732313a207472616e7366657220746f20746865207a65726f2061646460008201527f7265737300000000000000000000000000000000000000000000000000000000602082015250565b7f4552433732313a20617070726f766520746f2063616c6c657200000000000000600082015250565b7f4552433732313a2061646472657373207a65726f206973206e6f74206120766160008201527f6c6964206f776e65720000000000000000000000000000000000000000000000602082015250565b7f45524337323155524953746f726167653a2055524920736574206f66206e6f6e60008201527f6578697374656e7420746f6b656e000000000000000000000000000000000000602082015250565b7f5472616e73666572206f662045544820746f207265636569766572206661696c60008201527f6564000000000000000000000000000000000000000000000000000000000000602082015250565b7f4552433732313a20617070726f76652063616c6c6572206973206e6f7420746f60008201527f6b656e206f776e6572206e6f7220617070726f76656420666f7220616c6c0000602082015250565b7f4552433732313a206d696e7420746f20746865207a65726f2061646472657373600082015250565b7f4552433732313a20696e76616c696420746f6b656e2049440000000000000000600082015250565b7f4552433732313a20617070726f76616c20746f2063757272656e74206f776e6560008201527f7200000000000000000000000000000000000000000000000000000000000000602082015250565b7f4552433732313a2063616c6c6572206973206e6f7420746f6b656e206f776e6560008201527f72206e6f7220617070726f766564000000000000000000000000000000000000602082015250565b612b288161250c565b8114612b3357600080fd5b50565b612b3f8161251e565b8114612b4a57600080fd5b50565b612b5681612530565b8114612b6157600080fd5b50565b612b6d8161253c565b8114612b7857600080fd5b50565b612b8481612588565b8114612b8f57600080fd5b5056fea264697066735822122017539172f3c944e53572265bde0e54091c146c19162b0962bdecad137788a99664736f6c63430008040033a264697066735822122002c19ed79bbff289600559c4da140898acf9c0610e2ef36071af727ee5969cb664736f6c63430008040033",
  "linkReferences": {},
  "deployedLinkReferences": {}
}